{
	"base/UUPSProxy.sol": {
		"UUPSProxy": {
			"abi": [
				{
					"inputs": [],
					"name": "Initialized",
					"type": "error"
				},
				{
					"inputs": [],
					"name": "ZeroAddress",
					"type": "error"
				},
				{
					"stateMutability": "payable",
					"type": "fallback"
				},
				{
					"inputs": [
						{
							"internalType": "address",
							"name": "initialAddress",
							"type": "address"
						}
					],
					"name": "initializeProxy",
					"outputs": [],
					"stateMutability": "nonpayable",
					"type": "function"
				}
			],
			"devdoc": {
				"author": "jtriley.eth",
				"details": "`initializeProxy(address)` is called by the Super Token Factory The call to the factory should be in the same transaction to avoid being front run",
				"kind": "dev",
				"methods": {
					"initializeProxy(address)": {
						"details": "Called by the SuperTokenFactory contract on upgrade",
						"params": {
							"initialAddress": "logic contract address"
						}
					}
				},
				"title": "UUPS Proxy implementation contract",
				"version": 1
			},
			"evm": {
				"assembly": "    /* \"base/UUPSProxy.sol\":434:1549  contract UUPSProxy is Proxy {... */\n  mstore(0x40, 0x80)\n  callvalue\n  dup1\n  iszero\n  tag_1\n  jumpi\n  0x00\n  dup1\n  revert\ntag_1:\n  pop\n  dataSize(sub_0)\n  dup1\n  dataOffset(sub_0)\n  0x00\n  codecopy\n  0x00\n  return\nstop\n\nsub_0: assembly {\n        /* \"base/UUPSProxy.sol\":434:1549  contract UUPSProxy is Proxy {... */\n      mstore(0x40, 0x80)\n      jumpi(tag_1, lt(calldatasize, 0x04))\n      shr(0xe0, calldataload(0x00))\n      dup1\n      0x4a0687ef\n      eq\n      tag_3\n      jumpi\n      jump(tag_2)\n    tag_1:\n    tag_2:\n        /* \"@openzeppelin/contracts/proxy/Proxy.sol\":2649:2660  _fallback() */\n      tag_6\n        /* \"@openzeppelin/contracts/proxy/Proxy.sol\":2649:2658  _fallback */\n      tag_7\n        /* \"@openzeppelin/contracts/proxy/Proxy.sol\":2649:2660  _fallback() */\n      jump\t// in\n    tag_6:\n        /* \"base/UUPSProxy.sol\":434:1549  contract UUPSProxy is Proxy {... */\n      stop\n        /* \"base/UUPSProxy.sol\":1049:1295  function initializeProxy(address initialAddress) external {... */\n    tag_3:\n      callvalue\n      dup1\n      iszero\n      tag_8\n      jumpi\n      0x00\n      dup1\n      revert\n    tag_8:\n      pop\n      tag_9\n      0x04\n      dup1\n      calldatasize\n      sub\n      dup2\n      add\n      swap1\n      tag_10\n      swap2\n      swap1\n      tag_11\n      jump\t// in\n    tag_10:\n      tag_12\n      jump\t// in\n    tag_9:\n      stop\n        /* \"@openzeppelin/contracts/proxy/Proxy.sol\":2323:2406  function _fallback() internal virtual {... */\n    tag_7:\n        /* \"@openzeppelin/contracts/proxy/Proxy.sol\":2371:2399  _delegate(_implementation()) */\n      tag_14\n        /* \"@openzeppelin/contracts/proxy/Proxy.sol\":2381:2398  _implementation() */\n      tag_15\n        /* \"@openzeppelin/contracts/proxy/Proxy.sol\":2381:2396  _implementation */\n      tag_16\n        /* \"@openzeppelin/contracts/proxy/Proxy.sol\":2381:2398  _implementation() */\n      jump\t// in\n    tag_15:\n        /* \"@openzeppelin/contracts/proxy/Proxy.sol\":2371:2380  _delegate */\n      tag_17\n        /* \"@openzeppelin/contracts/proxy/Proxy.sol\":2371:2399  _delegate(_implementation()) */\n      jump\t// in\n    tag_14:\n        /* \"@openzeppelin/contracts/proxy/Proxy.sol\":2323:2406  function _fallback() internal virtual {... */\n      jump\t// out\n        /* \"base/UUPSProxy.sol\":1049:1295  function initializeProxy(address initialAddress) external {... */\n    tag_12:\n        /* \"base/UUPSProxy.sol\":1141:1142  0 */\n      0x00\n        /* \"base/UUPSProxy.sol\":1115:1143  initialAddress == address(0) */\n      0xffffffffffffffffffffffffffffffffffffffff\n      and\n        /* \"base/UUPSProxy.sol\":1115:1129  initialAddress */\n      dup2\n        /* \"base/UUPSProxy.sol\":1115:1143  initialAddress == address(0) */\n      0xffffffffffffffffffffffffffffffffffffffff\n      and\n      sub\n        /* \"base/UUPSProxy.sol\":1111:1165  if (initialAddress == address(0)) revert ZeroAddress() */\n      tag_19\n      jumpi\n        /* \"base/UUPSProxy.sol\":1152:1165  ZeroAddress() */\n      mload(0x40)\n      0xd92e233d00000000000000000000000000000000000000000000000000000000\n      dup2\n      mstore\n      0x04\n      add\n      mload(0x40)\n      dup1\n      swap2\n      sub\n      swap1\n      revert\n        /* \"base/UUPSProxy.sol\":1111:1165  if (initialAddress == address(0)) revert ZeroAddress() */\n    tag_19:\n        /* \"base/UUPSProxy.sol\":1202:1203  0 */\n      0x00\n        /* \"base/UUPSProxy.sol\":1173:1204  _implementation() != address(0) */\n      0xffffffffffffffffffffffffffffffffffffffff\n      and\n        /* \"base/UUPSProxy.sol\":1173:1190  _implementation() */\n      tag_20\n        /* \"base/UUPSProxy.sol\":1173:1188  _implementation */\n      tag_16\n        /* \"base/UUPSProxy.sol\":1173:1190  _implementation() */\n      jump\t// in\n    tag_20:\n        /* \"base/UUPSProxy.sol\":1173:1204  _implementation() != address(0) */\n      0xffffffffffffffffffffffffffffffffffffffff\n      and\n      eq\n        /* \"base/UUPSProxy.sol\":1169:1226  if (_implementation() != address(0)) revert Initialized() */\n      tag_21\n      jumpi\n        /* \"base/UUPSProxy.sol\":1213:1226  Initialized() */\n      mload(0x40)\n      0x5daa87a000000000000000000000000000000000000000000000000000000000\n      dup2\n      mstore\n      0x04\n      add\n      mload(0x40)\n      dup1\n      swap2\n      sub\n      swap1\n      revert\n        /* \"base/UUPSProxy.sol\":1169:1226  if (_implementation() != address(0)) revert Initialized() */\n    tag_21:\n        /* \"base/UUPSProxy.sol\":1273:1287  initialAddress */\n      dup1\n        /* \"base/UUPSProxy.sol\":1251:1271  _IMPLEMENTATION_SLOT */\n      0x360894a13ba1a3210667c828492db98dca3e2076cc3735a920a3ca505d382bbc\n        /* \"base/UUPSProxy.sol\":1244:1288  sstore(_IMPLEMENTATION_SLOT, initialAddress) */\n      sstore\n        /* \"base/UUPSProxy.sol\":1049:1295  function initializeProxy(address initialAddress) external {... */\n      pop\n      jump\t// out\n        /* \"base/UUPSProxy.sol\":1395:1547  function _implementation()... */\n    tag_16:\n        /* \"base/UUPSProxy.sol\":1472:1484  address impl */\n      0x00\n        /* \"base/UUPSProxy.sol\":1519:1539  _IMPLEMENTATION_SLOT */\n      0x360894a13ba1a3210667c828492db98dca3e2076cc3735a920a3ca505d382bbc\n        /* \"base/UUPSProxy.sol\":1513:1540  sload(_IMPLEMENTATION_SLOT) */\n      sload\n        /* \"base/UUPSProxy.sol\":1505:1540  impl := sload(_IMPLEMENTATION_SLOT) */\n      swap1\n      pop\n        /* \"base/UUPSProxy.sol\":1395:1547  function _implementation()... */\n      swap1\n      jump\t// out\n        /* \"@openzeppelin/contracts/proxy/Proxy.sol\":949:1844  function _delegate(address implementation) internal virtual {... */\n    tag_17:\n        /* \"@openzeppelin/contracts/proxy/Proxy.sol\":1287:1301  calldatasize() */\n      calldatasize\n        /* \"@openzeppelin/contracts/proxy/Proxy.sol\":1284:1285  0 */\n      0x00\n        /* \"@openzeppelin/contracts/proxy/Proxy.sol\":1281:1282  0 */\n      dup1\n        /* \"@openzeppelin/contracts/proxy/Proxy.sol\":1268:1302  calldatacopy(0, 0, calldatasize()) */\n      calldatacopy\n        /* \"@openzeppelin/contracts/proxy/Proxy.sol\":1501:1502  0 */\n      0x00\n        /* \"@openzeppelin/contracts/proxy/Proxy.sol\":1498:1499  0 */\n      dup1\n        /* \"@openzeppelin/contracts/proxy/Proxy.sol\":1482:1496  calldatasize() */\n      calldatasize\n        /* \"@openzeppelin/contracts/proxy/Proxy.sol\":1479:1480  0 */\n      0x00\n        /* \"@openzeppelin/contracts/proxy/Proxy.sol\":1463:1477  implementation */\n      dup5\n        /* \"@openzeppelin/contracts/proxy/Proxy.sol\":1456:1461  gas() */\n      gas\n        /* \"@openzeppelin/contracts/proxy/Proxy.sol\":1443:1503  delegatecall(gas(), implementation, 0, calldatasize(), 0, 0) */\n      delegatecall\n        /* \"@openzeppelin/contracts/proxy/Proxy.sol\":1577:1593  returndatasize() */\n      returndatasize\n        /* \"@openzeppelin/contracts/proxy/Proxy.sol\":1574:1575  0 */\n      0x00\n        /* \"@openzeppelin/contracts/proxy/Proxy.sol\":1571:1572  0 */\n      dup1\n        /* \"@openzeppelin/contracts/proxy/Proxy.sol\":1556:1594  returndatacopy(0, 0, returndatasize()) */\n      returndatacopy\n        /* \"@openzeppelin/contracts/proxy/Proxy.sol\":1615:1621  result */\n      dup1\n        /* \"@openzeppelin/contracts/proxy/Proxy.sol\":1687:1688  0 */\n      0x00\n        /* \"@openzeppelin/contracts/proxy/Proxy.sol\":1682:1748  case 0 {... */\n      dup2\n      eq\n      tag_25\n      jumpi\n        /* \"@openzeppelin/contracts/proxy/Proxy.sol\":1797:1813  returndatasize() */\n      returndatasize\n        /* \"@openzeppelin/contracts/proxy/Proxy.sol\":1794:1795  0 */\n      0x00\n        /* \"@openzeppelin/contracts/proxy/Proxy.sol\":1787:1814  return(0, returndatasize()) */\n      return\n        /* \"@openzeppelin/contracts/proxy/Proxy.sol\":1682:1748  case 0 {... */\n    tag_25:\n        /* \"@openzeppelin/contracts/proxy/Proxy.sol\":1717:1733  returndatasize() */\n      returndatasize\n        /* \"@openzeppelin/contracts/proxy/Proxy.sol\":1714:1715  0 */\n      0x00\n        /* \"@openzeppelin/contracts/proxy/Proxy.sol\":1707:1734  revert(0, returndatasize()) */\n      revert\n        /* \"#utility.yul\":88:205   */\n    tag_27:\n        /* \"#utility.yul\":197:198   */\n      0x00\n        /* \"#utility.yul\":194:195   */\n      dup1\n        /* \"#utility.yul\":187:199   */\n      revert\n        /* \"#utility.yul\":334:460   */\n    tag_29:\n        /* \"#utility.yul\":371:378   */\n      0x00\n        /* \"#utility.yul\":411:453   */\n      0xffffffffffffffffffffffffffffffffffffffff\n        /* \"#utility.yul\":404:409   */\n      dup3\n        /* \"#utility.yul\":400:454   */\n      and\n        /* \"#utility.yul\":389:454   */\n      swap1\n      pop\n        /* \"#utility.yul\":334:460   */\n      swap2\n      swap1\n      pop\n      jump\t// out\n        /* \"#utility.yul\":466:562   */\n    tag_30:\n        /* \"#utility.yul\":503:510   */\n      0x00\n        /* \"#utility.yul\":532:556   */\n      tag_39\n        /* \"#utility.yul\":550:555   */\n      dup3\n        /* \"#utility.yul\":532:556   */\n      tag_29\n      jump\t// in\n    tag_39:\n        /* \"#utility.yul\":521:556   */\n      swap1\n      pop\n        /* \"#utility.yul\":466:562   */\n      swap2\n      swap1\n      pop\n      jump\t// out\n        /* \"#utility.yul\":568:690   */\n    tag_31:\n        /* \"#utility.yul\":641:665   */\n      tag_41\n        /* \"#utility.yul\":659:664   */\n      dup2\n        /* \"#utility.yul\":641:665   */\n      tag_30\n      jump\t// in\n    tag_41:\n        /* \"#utility.yul\":634:639   */\n      dup2\n        /* \"#utility.yul\":631:666   */\n      eq\n        /* \"#utility.yul\":621:684   */\n      tag_42\n      jumpi\n        /* \"#utility.yul\":680:681   */\n      0x00\n        /* \"#utility.yul\":677:678   */\n      dup1\n        /* \"#utility.yul\":670:682   */\n      revert\n        /* \"#utility.yul\":621:684   */\n    tag_42:\n        /* \"#utility.yul\":568:690   */\n      pop\n      jump\t// out\n        /* \"#utility.yul\":696:835   */\n    tag_32:\n        /* \"#utility.yul\":742:747   */\n      0x00\n        /* \"#utility.yul\":780:786   */\n      dup2\n        /* \"#utility.yul\":767:787   */\n      calldataload\n        /* \"#utility.yul\":758:787   */\n      swap1\n      pop\n        /* \"#utility.yul\":796:829   */\n      tag_44\n        /* \"#utility.yul\":823:828   */\n      dup2\n        /* \"#utility.yul\":796:829   */\n      tag_31\n      jump\t// in\n    tag_44:\n        /* \"#utility.yul\":696:835   */\n      swap3\n      swap2\n      pop\n      pop\n      jump\t// out\n        /* \"#utility.yul\":841:1170   */\n    tag_11:\n        /* \"#utility.yul\":900:906   */\n      0x00\n        /* \"#utility.yul\":949:951   */\n      0x20\n        /* \"#utility.yul\":937:946   */\n      dup3\n        /* \"#utility.yul\":928:935   */\n      dup5\n        /* \"#utility.yul\":924:947   */\n      sub\n        /* \"#utility.yul\":920:952   */\n      slt\n        /* \"#utility.yul\":917:1036   */\n      iszero\n      tag_46\n      jumpi\n        /* \"#utility.yul\":955:1034   */\n      tag_47\n      tag_27\n      jump\t// in\n    tag_47:\n        /* \"#utility.yul\":917:1036   */\n    tag_46:\n        /* \"#utility.yul\":1075:1076   */\n      0x00\n        /* \"#utility.yul\":1100:1153   */\n      tag_48\n        /* \"#utility.yul\":1145:1152   */\n      dup5\n        /* \"#utility.yul\":1136:1142   */\n      dup3\n        /* \"#utility.yul\":1125:1134   */\n      dup6\n        /* \"#utility.yul\":1121:1143   */\n      add\n        /* \"#utility.yul\":1100:1153   */\n      tag_32\n      jump\t// in\n    tag_48:\n        /* \"#utility.yul\":1090:1153   */\n      swap2\n      pop\n        /* \"#utility.yul\":1046:1163   */\n      pop\n        /* \"#utility.yul\":841:1170   */\n      swap3\n      swap2\n      pop\n      pop\n      jump\t// out\n\n    auxdata: 0xa264697066735822122008fe84e2657ad6bbb87e5868cda20c6c9cee6319eb5a2cff0c480f5d4cd44e9b64736f6c63430008160033\n}\n",
				"bytecode": {
					"linkReferences": {},
					"object": "608060405234801561000f575f80fd5b506102638061001d5f395ff3fe608060405260043610610021575f3560e01c80634a0687ef1461002c57610022565b5b61002a610054565b005b348015610037575f80fd5b50610052600480360381019061004d9190610202565b610066565b005b61006461005f61015d565b610185565b565b5f73ffffffffffffffffffffffffffffffffffffffff168173ffffffffffffffffffffffffffffffffffffffff16036100cb576040517fd92e233d00000000000000000000000000000000000000000000000000000000815260040160405180910390fd5b5f73ffffffffffffffffffffffffffffffffffffffff166100ea61015d565b73ffffffffffffffffffffffffffffffffffffffff1614610137576040517f5daa87a000000000000000000000000000000000000000000000000000000000815260040160405180910390fd5b807f360894a13ba1a3210667c828492db98dca3e2076cc3735a920a3ca505d382bbc5550565b5f7f360894a13ba1a3210667c828492db98dca3e2076cc3735a920a3ca505d382bbc54905090565b365f80375f80365f845af43d5f803e805f81146101a0573d5ff35b3d5ffd5b5f80fd5b5f73ffffffffffffffffffffffffffffffffffffffff82169050919050565b5f6101d1826101a8565b9050919050565b6101e1816101c7565b81146101eb575f80fd5b50565b5f813590506101fc816101d8565b92915050565b5f60208284031215610217576102166101a4565b5b5f610224848285016101ee565b9150509291505056fea264697066735822122008fe84e2657ad6bbb87e5868cda20c6c9cee6319eb5a2cff0c480f5d4cd44e9b64736f6c63430008160033",
					"opcodes": "PUSH1 0x80 PUSH1 0x40 MSTORE CALLVALUE DUP1 ISZERO PUSH2 0xF JUMPI PUSH0 DUP1 REVERT JUMPDEST POP PUSH2 0x263 DUP1 PUSH2 0x1D PUSH0 CODECOPY PUSH0 RETURN INVALID PUSH1 0x80 PUSH1 0x40 MSTORE PUSH1 0x4 CALLDATASIZE LT PUSH2 0x21 JUMPI PUSH0 CALLDATALOAD PUSH1 0xE0 SHR DUP1 PUSH4 0x4A0687EF EQ PUSH2 0x2C JUMPI PUSH2 0x22 JUMP JUMPDEST JUMPDEST PUSH2 0x2A PUSH2 0x54 JUMP JUMPDEST STOP JUMPDEST CALLVALUE DUP1 ISZERO PUSH2 0x37 JUMPI PUSH0 DUP1 REVERT JUMPDEST POP PUSH2 0x52 PUSH1 0x4 DUP1 CALLDATASIZE SUB DUP2 ADD SWAP1 PUSH2 0x4D SWAP2 SWAP1 PUSH2 0x202 JUMP JUMPDEST PUSH2 0x66 JUMP JUMPDEST STOP JUMPDEST PUSH2 0x64 PUSH2 0x5F PUSH2 0x15D JUMP JUMPDEST PUSH2 0x185 JUMP JUMPDEST JUMP JUMPDEST PUSH0 PUSH20 0xFFFFFFFFFFFFFFFFFFFFFFFFFFFFFFFFFFFFFFFF AND DUP2 PUSH20 0xFFFFFFFFFFFFFFFFFFFFFFFFFFFFFFFFFFFFFFFF AND SUB PUSH2 0xCB JUMPI PUSH1 0x40 MLOAD PUSH32 0xD92E233D00000000000000000000000000000000000000000000000000000000 DUP2 MSTORE PUSH1 0x4 ADD PUSH1 0x40 MLOAD DUP1 SWAP2 SUB SWAP1 REVERT JUMPDEST PUSH0 PUSH20 0xFFFFFFFFFFFFFFFFFFFFFFFFFFFFFFFFFFFFFFFF AND PUSH2 0xEA PUSH2 0x15D JUMP JUMPDEST PUSH20 0xFFFFFFFFFFFFFFFFFFFFFFFFFFFFFFFFFFFFFFFF AND EQ PUSH2 0x137 JUMPI PUSH1 0x40 MLOAD PUSH32 0x5DAA87A000000000000000000000000000000000000000000000000000000000 DUP2 MSTORE PUSH1 0x4 ADD PUSH1 0x40 MLOAD DUP1 SWAP2 SUB SWAP1 REVERT JUMPDEST DUP1 PUSH32 0x360894A13BA1A3210667C828492DB98DCA3E2076CC3735A920A3CA505D382BBC SSTORE POP JUMP JUMPDEST PUSH0 PUSH32 0x360894A13BA1A3210667C828492DB98DCA3E2076CC3735A920A3CA505D382BBC SLOAD SWAP1 POP SWAP1 JUMP JUMPDEST CALLDATASIZE PUSH0 DUP1 CALLDATACOPY PUSH0 DUP1 CALLDATASIZE PUSH0 DUP5 GAS DELEGATECALL RETURNDATASIZE PUSH0 DUP1 RETURNDATACOPY DUP1 PUSH0 DUP2 EQ PUSH2 0x1A0 JUMPI RETURNDATASIZE PUSH0 RETURN JUMPDEST RETURNDATASIZE PUSH0 REVERT JUMPDEST PUSH0 DUP1 REVERT JUMPDEST PUSH0 PUSH20 0xFFFFFFFFFFFFFFFFFFFFFFFFFFFFFFFFFFFFFFFF DUP3 AND SWAP1 POP SWAP2 SWAP1 POP JUMP JUMPDEST PUSH0 PUSH2 0x1D1 DUP3 PUSH2 0x1A8 JUMP JUMPDEST SWAP1 POP SWAP2 SWAP1 POP JUMP JUMPDEST PUSH2 0x1E1 DUP2 PUSH2 0x1C7 JUMP JUMPDEST DUP2 EQ PUSH2 0x1EB JUMPI PUSH0 DUP1 REVERT JUMPDEST POP JUMP JUMPDEST PUSH0 DUP2 CALLDATALOAD SWAP1 POP PUSH2 0x1FC DUP2 PUSH2 0x1D8 JUMP JUMPDEST SWAP3 SWAP2 POP POP JUMP JUMPDEST PUSH0 PUSH1 0x20 DUP3 DUP5 SUB SLT ISZERO PUSH2 0x217 JUMPI PUSH2 0x216 PUSH2 0x1A4 JUMP JUMPDEST JUMPDEST PUSH0 PUSH2 0x224 DUP5 DUP3 DUP6 ADD PUSH2 0x1EE JUMP JUMPDEST SWAP2 POP POP SWAP3 SWAP2 POP POP JUMP INVALID LOG2 PUSH5 0x6970667358 0x22 SLT KECCAK256 ADDMOD INVALID DUP5 0xE2 PUSH6 0x7AD6BBB87E58 PUSH9 0xCDA20C6C9CEE6319EB GAS 0x2C SELFDESTRUCT 0xC BASEFEE 0xF 0x5D 0x4C 0xD4 0x4E SWAP12 PUSH5 0x736F6C6343 STOP ADDMOD AND STOP CALLER "
				},
				"gasEstimates": {
					"creation": {
						"codeDepositCost": "122200",
						"executionCost": "169",
						"totalCost": "122369"
					},
					"external": {
						"": "infinite",
						"initializeProxy(address)": "24735"
					},
					"internal": {
						"_implementation()": "2122"
					}
				},
				"methodIdentifiers": {
					"initializeProxy(address)": "4a0687ef"
				}
			},
			"storageLayout": {
				"storage": [],
				"types": null
			},
			"userdoc": {
				"errors": {
					"Initialized()": [
						{
							"notice": "Thrown when the logic contract has been set"
						}
					],
					"ZeroAddress()": [
						{
							"notice": "Thrown when the logic contract address is zero"
						}
					]
				},
				"kind": "user",
				"methods": {
					"initializeProxy(address)": {
						"notice": "Stores the logic contract address only once."
					}
				},
				"notice": "Stores the logic contract's address at the _IMPLEMENTATION_SLOT",
				"version": 1
			}
		}
	}
}